{
  "contractName": "CertificateStorage",
  "abi": [
    {
      "inputs": [],
      "stateMutability": "nonpayable",
      "type": "constructor"
    },
    {
      "inputs": [
        {
          "internalType": "uint256",
          "name": "",
          "type": "uint256"
        }
      ],
      "name": "certificateHashes",
      "outputs": [
        {
          "internalType": "bytes32",
          "name": "",
          "type": "bytes32"
        }
      ],
      "stateMutability": "view",
      "type": "function",
      "constant": true
    },
    {
      "inputs": [
        {
          "internalType": "bytes32",
          "name": "",
          "type": "bytes32"
        }
      ],
      "name": "certificates",
      "outputs": [
        {
          "internalType": "bytes32",
          "name": "payloadHash",
          "type": "bytes32"
        },
        {
          "internalType": "string",
          "name": "cid",
          "type": "string"
        },
        {
          "internalType": "address",
          "name": "student",
          "type": "address"
        },
        {
          "internalType": "address",
          "name": "issuer",
          "type": "address"
        },
        {
          "internalType": "uint256",
          "name": "issuedAt",
          "type": "uint256"
        }
      ],
      "stateMutability": "view",
      "type": "function",
      "constant": true
    },
    {
      "inputs": [
        {
          "internalType": "address",
          "name": "",
          "type": "address"
        }
      ],
      "name": "isRegisteredUniversity",
      "outputs": [
        {
          "internalType": "bool",
          "name": "",
          "type": "bool"
        }
      ],
      "stateMutability": "view",
      "type": "function",
      "constant": true
    },
    {
      "inputs": [
        {
          "internalType": "bytes32",
          "name": "payloadHash",
          "type": "bytes32"
        },
        {
          "internalType": "string",
          "name": "cid",
          "type": "string"
        },
        {
          "internalType": "address",
          "name": "student",
          "type": "address"
        },
        {
          "internalType": "uint256",
          "name": "issuedAt",
          "type": "uint256"
        }
      ],
      "name": "registerCertificate",
      "outputs": [],
      "stateMutability": "nonpayable",
      "type": "function"
    },
    {
      "inputs": [],
      "name": "totalCertificates",
      "outputs": [
        {
          "internalType": "uint256",
          "name": "",
          "type": "uint256"
        }
      ],
      "stateMutability": "view",
      "type": "function",
      "constant": true
    },
    {
      "inputs": [
        {
          "internalType": "uint256",
          "name": "index",
          "type": "uint256"
        }
      ],
      "name": "getCertificate",
      "outputs": [
        {
          "internalType": "bytes32",
          "name": "payloadHash",
          "type": "bytes32"
        },
        {
          "internalType": "string",
          "name": "cid",
          "type": "string"
        },
        {
          "internalType": "address",
          "name": "student",
          "type": "address"
        },
        {
          "internalType": "address",
          "name": "issuer",
          "type": "address"
        },
        {
          "internalType": "uint256",
          "name": "issuedAt",
          "type": "uint256"
        }
      ],
      "stateMutability": "view",
      "type": "function",
      "constant": true
    }
  ],
  "bytecode": "0x608060405234801561001057600080fd5b5060016002600073aeb5dc5d5dbfdf3e9291c942cf4431844d902bed73ffffffffffffffffffffffffffffffffffffffff1673ffffffffffffffffffffffffffffffffffffffff16815260200190815260200160002060006101000a81548160ff021916908315150217905550610f628061008c6000396000f3fe608060405234801561001057600080fd5b50600436106100625760003560e01c806303eea19d1461006757806351640fee14610083578063596b772f146100b75780637164a5dc146100d5578063742f068814610105578063a1735e7114610139575b600080fd5b610081600480360381019061007c91906108cb565b610169565b005b61009d6004803603810190610098919061094e565b610344565b6040516100ae959493929190610a27565b60405180910390f35b6100bf610558565b6040516100cc9190610a81565b60405180910390f35b6100ef60048036038101906100ea9190610a9c565b610565565b6040516100fc9190610ae4565b60405180910390f35b61011f600480360381019061011a9190610aff565b610585565b604051610130959493929190610a27565b60405180910390f35b610153600480360381019061014e919061094e565b610683565b6040516101609190610b2c565b60405180910390f35b600260003373ffffffffffffffffffffffffffffffffffffffff1673ffffffffffffffffffffffffffffffffffffffff16815260200190815260200160002060009054906101000a900460ff166101f5576040517f08c379a00000000000000000000000000000000000000000000000000000000081526004016101ec90610b93565b60405180910390fd5b6040518060a001604052808581526020018481526020018373ffffffffffffffffffffffffffffffffffffffff1681526020013373ffffffffffffffffffffffffffffffffffffffff168152602001828152506000808681526020019081526020016000206000820151816000015560208201518160010190816102799190610dbf565b5060408201518160020160006101000a81548173ffffffffffffffffffffffffffffffffffffffff021916908373ffffffffffffffffffffffffffffffffffffffff16021790555060608201518160030160006101000a81548173ffffffffffffffffffffffffffffffffffffffff021916908373ffffffffffffffffffffffffffffffffffffffff16021790555060808201518160040155905050600184908060018154018082558091505060019003906000526020600020016000909190919091505550505050565b6000606060008060006001805490508610610394576040517f08c379a000000000000000000000000000000000000000000000000000000000815260040161038b90610edd565b60405180910390fd5b6000600187815481106103aa576103a9610efd565b5b9060005260206000200154905060008060008381526020019081526020016000206040518060a0016040529081600082015481526020016001820180546103f090610be2565b80601f016020809104026020016040519081016040528092919081815260200182805461041c90610be2565b80156104695780601f1061043e57610100808354040283529160200191610469565b820191906000526020600020905b81548152906001019060200180831161044c57829003601f168201915b505050505081526020016002820160009054906101000a900473ffffffffffffffffffffffffffffffffffffffff1673ffffffffffffffffffffffffffffffffffffffff1673ffffffffffffffffffffffffffffffffffffffff1681526020016003820160009054906101000a900473ffffffffffffffffffffffffffffffffffffffff1673ffffffffffffffffffffffffffffffffffffffff1673ffffffffffffffffffffffffffffffffffffffff16815260200160048201548152505090508060000151816020015182604001518360600151846080015196509650965096509650505091939590929450565b6000600180549050905090565b60026020528060005260406000206000915054906101000a900460ff1681565b60006020528060005260406000206000915090508060000154908060010180546105ae90610be2565b80601f01602080910402602001604051908101604052809291908181526020018280546105da90610be2565b80156106275780601f106105fc57610100808354040283529160200191610627565b820191906000526020600020905b81548152906001019060200180831161060a57829003601f168201915b5050505050908060020160009054906101000a900473ffffffffffffffffffffffffffffffffffffffff16908060030160009054906101000a900473ffffffffffffffffffffffffffffffffffffffff16908060040154905085565b6001818154811061069357600080fd5b906000526020600020016000915090505481565b6000604051905090565b600080fd5b600080fd5b6000819050919050565b6106ce816106bb565b81146106d957600080fd5b50565b6000813590506106eb816106c5565b92915050565b600080fd5b600080fd5b6000601f19601f8301169050919050565b7f4e487b7100000000000000000000000000000000000000000000000000000000600052604160045260246000fd5b610744826106fb565b810181811067ffffffffffffffff821117156107635761076261070c565b5b80604052505050565b60006107766106a7565b9050610782828261073b565b919050565b600067ffffffffffffffff8211156107a2576107a161070c565b5b6107ab826106fb565b9050602081019050919050565b82818337600083830152505050565b60006107da6107d584610787565b61076c565b9050828152602081018484840111156107f6576107f56106f6565b5b6108018482856107b8565b509392505050565b600082601f83011261081e5761081d6106f1565b5b813561082e8482602086016107c7565b91505092915050565b600073ffffffffffffffffffffffffffffffffffffffff82169050919050565b600061086282610837565b9050919050565b61087281610857565b811461087d57600080fd5b50565b60008135905061088f81610869565b92915050565b6000819050919050565b6108a881610895565b81146108b357600080fd5b50565b6000813590506108c58161089f565b92915050565b600080600080608085870312156108e5576108e46106b1565b5b60006108f3878288016106dc565b945050602085013567ffffffffffffffff811115610914576109136106b6565b5b61092087828801610809565b935050604061093187828801610880565b9250506060610942878288016108b6565b91505092959194509250565b600060208284031215610964576109636106b1565b5b6000610972848285016108b6565b91505092915050565b610984816106bb565b82525050565b600081519050919050565b600082825260208201905092915050565b60005b838110156109c45780820151818401526020810190506109a9565b60008484015250505050565b60006109db8261098a565b6109e58185610995565b93506109f58185602086016109a6565b6109fe816106fb565b840191505092915050565b610a1281610857565b82525050565b610a2181610895565b82525050565b600060a082019050610a3c600083018861097b565b8181036020830152610a4e81876109d0565b9050610a5d6040830186610a09565b610a6a6060830185610a09565b610a776080830184610a18565b9695505050505050565b6000602082019050610a966000830184610a18565b92915050565b600060208284031215610ab257610ab16106b1565b5b6000610ac084828501610880565b91505092915050565b60008115159050919050565b610ade81610ac9565b82525050565b6000602082019050610af96000830184610ad5565b92915050565b600060208284031215610b1557610b146106b1565b5b6000610b23848285016106dc565b91505092915050565b6000602082019050610b41600083018461097b565b92915050565b7f4e6f742061207265676973746572656420756e69766572736974790000000000600082015250565b6000610b7d601b83610995565b9150610b8882610b47565b602082019050919050565b60006020820190508181036000830152610bac81610b70565b9050919050565b7f4e487b7100000000000000000000000000000000000000000000000000000000600052602260045260246000fd5b60006002820490506001821680610bfa57607f821691505b602082108103610c0d57610c0c610bb3565b5b50919050565b60008190508160005260206000209050919050565b60006020601f8301049050919050565b600082821b905092915050565b600060088302610c757fffffffffffffffffffffffffffffffffffffffffffffffffffffffffffffffff82610c38565b610c7f8683610c38565b95508019841693508086168417925050509392505050565b6000819050919050565b6000610cbc610cb7610cb284610895565b610c97565b610895565b9050919050565b6000819050919050565b610cd683610ca1565b610cea610ce282610cc3565b848454610c45565b825550505050565b600090565b610cff610cf2565b610d0a818484610ccd565b505050565b5b81811015610d2e57610d23600082610cf7565b600181019050610d10565b5050565b601f821115610d7357610d4481610c13565b610d4d84610c28565b81016020851015610d5c578190505b610d70610d6885610c28565b830182610d0f565b50505b505050565b600082821c905092915050565b6000610d9660001984600802610d78565b1980831691505092915050565b6000610daf8383610d85565b9150826002028217905092915050565b610dc88261098a565b67ffffffffffffffff811115610de157610de061070c565b5b610deb8254610be2565b610df6828285610d32565b600060209050601f831160018114610e295760008415610e17578287015190505b610e218582610da3565b865550610e89565b601f198416610e3786610c13565b60005b82811015610e5f57848901518255600182019150602085019450602081019050610e3a565b86831015610e7c5784890151610e78601f891682610d85565b8355505b6001600288020188555050505b505050505050565b7f496e76616c696420696e64657800000000000000000000000000000000000000600082015250565b6000610ec7600d83610995565b9150610ed282610e91565b602082019050919050565b60006020820190508181036000830152610ef681610eba565b9050919050565b7f4e487b7100000000000000000000000000000000000000000000000000000000600052603260045260246000fdfea264697066735822122030944b9ed6417a60128c73f6ffb8badfc62e0290a2339680d1a893e2e687c35064736f6c63430008110033",
  "immutableReferences": {},
  "source": "// SPDX-License-Identifier: MIT\npragma solidity ^0.8.0;\n\ncontract CertificateStorage {\n\n    struct Certificate {\n        bytes32 payloadHash;\n        string cid;\n        address student;\n        address issuer;\n        uint256 issuedAt;\n    }\n\n    mapping(bytes32 => Certificate) public certificates;\n\n    bytes32[] public certificateHashes;\n\n    mapping(address => bool) public isRegisteredUniversity;\n\n    constructor() {\n        isRegisteredUniversity[0xAeB5Dc5d5DbfdF3E9291C942cF4431844d902BeD] = true;\n    }\n\n    function registerCertificate(bytes32 payloadHash, string memory cid, address student, uint256 issuedAt) public {\n\n        require(isRegisteredUniversity[msg.sender], \"Not a registered university\");\n\n        certificates[payloadHash] = Certificate({\n            payloadHash: payloadHash,\n            cid: cid,\n            student: student,\n            issuer: msg.sender,\n            issuedAt: issuedAt\n        });\n\n        certificateHashes.push(payloadHash);\n    }\n\n    function totalCertificates() public view returns (uint) {\n        return certificateHashes.length;\n    }\n\n    function getCertificate(uint index) public view returns (\n        bytes32 payloadHash,\n        string memory cid,\n        address student,\n        address issuer,\n        uint256 issuedAt\n    ) {\n\n        require(index < certificateHashes.length, \"Invalid index\");\n\n        bytes32 hash = certificateHashes[index];\n\n        Certificate memory cert = certificates[hash];\n\n        return (\n            cert.payloadHash,\n            cert.cid,\n            cert.student,\n            cert.issuer,\n            cert.issuedAt\n        );\n    }\n}",
  "sourcePath": "/home/akshat-chaudhary/Documents/ASV-2/contracts/CertificateStorage.sol",
  "compiler": {
    "name": "solc",
    "version": "0.8.17+commit.8df45f5f.Emscripten.clang"
  },
  "schemaVersion": "3.4.16",
  "updatedAt": "2026-03-09T17:19:52.449Z",
  "networkType": "ethereum",
  "devdoc": {
    "kind": "dev",
    "methods": {},
    "version": 1
  },
  "userdoc": {
    "kind": "user",
    "methods": {},
    "version": 1
  }
}